:100000000C942A000C9447000C9447000C94470071
:100010000C9447000C9447000C9447000C94470044
:100020000C9447000C9447000C9447000C94470034
:100030000C9447000C9447000C9447000C94470024
:100040000C9447000C9447000C9447000C94470014
:100050000C94470011241FBECFE5D8E0DEBFCDBF12
:1000600010E0A0E6B0E0E0E4F5E002C005900D92FB
:10007000A036B107D9F710E0A0E6B0E001C01D92AC
:10008000A036B107E1F70E9429020C949E020C945D
:100090000000813049F0813028F0823039F083301F
:1000A00041F406C06ABB089567BB089564BB089518
:1000B00061BB0895813049F0813028F0823039F0F9
:1000C000833041F406C06BBB089568BB089565BBDF
:1000D000089562BB0895813059F0813028F0823054
:1000E00059F0833081F40CC089B3FB0180830895FB
:1000F00086B3FB018083089583B3FB018083089559
:1001000080B3FB0180830895813059F0813028F05D
:10011000823059F0833081F40CC08BB380958BBB57
:10012000089588B3809588BB089585B3809585BB75
:10013000089582B3809582BB0895813049F1813062
:1001400038F0823009F444C0833009F07EC05FC0CB
:10015000413069F42AB381E090E0AC0102C0440F61
:10016000551F6A95E2F7BA01622B6ABB08954423D2
:1001700009F06BC02AB381E090E0AC0102C0440FEB
:10018000551F6A95E2F7BA01609562236ABB08952C
:10019000413069F427B381E090E0AC0102C0440F24
:1001A000551F6A95E2F7BA01622B67BB0895442395
:1001B00009F04BC027B381E090E0AC0102C0440FCE
:1001C000551F6A95E2F7BA016095622367BB0895EF
:1001D000413069F424B381E090E0AC0102C0440FE7
:1001E000551F6A95E2F7BA01622B64BB0895442358
:1001F00061F524B381E090E0AC0102C0440F551FCB
:100200006A95E2F7BA016095622364BB08954130B4
:1002100069F421B381E090E0AC0102C0440F551FA6
:100220006A95E2F7BA01622B61BB0895442369F431
:1002300021B381E090E0AC0102C0440F551F6A95E4
:10024000E2F7BA016095622361BB0895813049F1FC
:10025000813038F0823009F444C0833009F07EC028
:100260005FC0413069F42BB381E090E0AC0102C083
:10027000440F551F6A95E2F7BA01622B6BBB0895D4
:10028000442309F06BC02BB381E090E0AC0102C0C5
:10029000440F551F6A95E2F7BA01609562236BBB64
:1002A0000895413069F428B381E090E0AC0102C0C8
:1002B000440F551F6A95E2F7BA01622B68BB089597
:1002C000442309F04BC028B381E090E0AC0102C0A8
:1002D000440F551F6A95E2F7BA016095622368BB27
:1002E0000895413069F425B381E090E0AC0102C08B
:1002F000440F551F6A95E2F7BA01622B65BB08955A
:10030000442361F525B381E090E0AC0102C0440FC5
:10031000551F6A95E2F7BA016095622365BB08959F
:10032000413069F422B381E090E0AC0102C0440F97
:10033000551F6A95E2F7BA01622B62BB0895442308
:1003400069F422B381E090E0AC0102C0440F551F74
:100350006A95E2F7BA016095622362BB0895813025
:10036000A1F0813028F08230E9F08330A1F527C078
:1003700089B390E09C0102C0359527956A95E2F714
:10038000B9016170FA016083089586B390E09C0121
:1003900002C0359527956A95E2F7B9016170FA01B7
:1003A0006083089583B390E09C0102C03595279542
:1003B0006A95E2F7B9016170FA016083089580B32C
:1003C00090E09C0102C0359527956A95E2F7B90146
:1003D0006170FA01608308958130A1F0813028F0C6
:1003E0008230E9F08330A1F527C02BB381E090E0A3
:1003F000AC0102C0440F551F6A95E2F7BA016227AB
:100400006BBB089528B381E090E0AC0102C0440FBB
:10041000551F6A95E2F7BA01622768BB089525B3B4
:1004200081E090E0AC0102C0440F551F6A95E2F7ED
:10043000BA01622765BB089522B381E090E0AC0168
:1004400002C0440F551F6A95E2F7BA01622762BBEA
:1004500008950E946B020E943D020E945F028FEF8E
:1004600099E6A8E181509040A040E1F700C000006B
:100470000E947F020E945602FBCF81E064E041E0CF
:100480000E949D0081E065E041E00E949D0081E0C6
:1004900066E040E00E949D0081E067E041E00E944C
:1004A0009D0080EC8EB983E78DB908958FB9779B55
:1004B000FECF8FB10895779BFECF8FB1089581E075
:1004C00064E040E00E942601089581E064E041E09C
:1004D0000E942601089583E389B910BC83E060E09F
:1004E00040E00E949D00549A83E061E041E00E9458
:1004F0009D00539A5798569886E880BD08955F9B53
:10050000FECF8CB108958CB98BB185FFFDCF0895D6
:100510000F931F93CF938C01FC018081882351F0AE
:10052000C0E00E948302CF5FF801EC0FF11D8081D3
:100530008823B9F7CF911F910F910895F894FFCFB9
:00000001FF
