:100000000C942A000C9447000C9447000C94470071
:100010000C9447000C9447000C9447000C94470044
:100020000C9447000C9447000C9447000C94470034
:100030000C9447000C9447000C9447000C94470024
:100040000C9447000C9447000C9447000C94470014
:100050000C94470011241FBECFE5D8E0DEBFCDBF12
:1000600010E0A0E6B0E0EAE0F9E002C005900D92F1
:10007000A036B107D9F710E0A0E6B0E001C01D92AC
:10008000A036B107E1F70E94F2030C9483040C94AC
:100090000000813049F0813028F0823039F083301F
:1000A00041F406C06ABB089567BB089564BB089518
:1000B00061BB0895813049F0813028F0823039F0F9
:1000C000833041F406C06BBB089568BB089565BBDF
:1000D000089562BB0895813059F0813028F0823054
:1000E00059F0833081F40CC089B3FB0180830895FB
:1000F00086B3FB018083089583B3FB018083089559
:1001000080B3FB0180830895813059F0813028F05D
:10011000823059F0833081F40CC08BB380958BBB57
:10012000089588B3809588BB089585B3809585BB75
:10013000089582B3809582BB0895813049F1813062
:1001400038F0823009F444C0833009F07EC05FC0CB
:10015000413069F42AB381E090E0AC0102C0440F61
:10016000551F6A95E2F7BA01622B6ABB08954423D2
:1001700009F06BC02AB381E090E0AC0102C0440FEB
:10018000551F6A95E2F7BA01609562236ABB08952C
:10019000413069F427B381E090E0AC0102C0440F24
:1001A000551F6A95E2F7BA01622B67BB0895442395
:1001B00009F04BC027B381E090E0AC0102C0440FCE
:1001C000551F6A95E2F7BA016095622367BB0895EF
:1001D000413069F424B381E090E0AC0102C0440FE7
:1001E000551F6A95E2F7BA01622B64BB0895442358
:1001F00061F524B381E090E0AC0102C0440F551FCB
:100200006A95E2F7BA016095622364BB08954130B4
:1002100069F421B381E090E0AC0102C0440F551FA6
:100220006A95E2F7BA01622B61BB0895442369F431
:1002300021B381E090E0AC0102C0440F551F6A95E4
:10024000E2F7BA016095622361BB0895813049F1FC
:10025000813038F0823009F444C0833009F07EC028
:100260005FC0413069F42BB381E090E0AC0102C083
:10027000440F551F6A95E2F7BA01622B6BBB0895D4
:10028000442309F06BC02BB381E090E0AC0102C0C5
:10029000440F551F6A95E2F7BA01609562236BBB64
:1002A0000895413069F428B381E090E0AC0102C0C8
:1002B000440F551F6A95E2F7BA01622B68BB089597
:1002C000442309F04BC028B381E090E0AC0102C0A8
:1002D000440F551F6A95E2F7BA016095622368BB27
:1002E0000895413069F425B381E090E0AC0102C08B
:1002F000440F551F6A95E2F7BA01622B65BB08955A
:10030000442361F525B381E090E0AC0102C0440FC5
:10031000551F6A95E2F7BA016095622365BB08959F
:10032000413069F422B381E090E0AC0102C0440F97
:10033000551F6A95E2F7BA01622B62BB0895442308
:1003400069F422B381E090E0AC0102C0440F551F74
:100350006A95E2F7BA016095622362BB0895813025
:10036000A1F0813028F08230E9F08330A1F527C078
:1003700089B390E09C0102C0359527956A95E2F714
:10038000B9016170FA016083089586B390E09C0121
:1003900002C0359527956A95E2F7B9016170FA01B7
:1003A0006083089583B390E09C0102C03595279542
:1003B0006A95E2F7B9016170FA016083089580B32C
:1003C00090E09C0102C0359527956A95E2F7B90146
:1003D0006170FA01608308958130A1F0813028F0C6
:1003E0008230E9F08330A1F527C02BB381E090E0A3
:1003F000AC0102C0440F551F6A95E2F7BA016227AB
:100400006BBB089528B381E090E0AC0102C0440FBB
:10041000551F6A95E2F7BA01622768BB089525B3B4
:1004200081E090E0AC0102C0440F551F6A95E2F7ED
:10043000BA01622765BB089522B381E090E0AC0168
:1004400002C0440F551F6A95E2F7BA01622762BBEA
:100450000895CF93C82F81E061E040E00E9426011B
:1004600081E062E040E00E94260181E063E040E03C
:100470000E9426018BB39C2F907F8F70892B8BBBA2
:1004800081E063E041E00E9426018FE99FE001974F
:10049000F1F700C0000081E063E040E00E94260127
:1004A0008BB3C295C07F8F70C82BCBBB81E063E05C
:1004B00041E00E9426018FE99FE00197F1F700C01B
:1004C000000081E063E040E00E9426018FE19EE4AD
:1004D0000197F1F700C00000CF910895CF93C82F86
:1004E00081E061E041E00E94260181E062E040E0BD
:1004F0000E94260181E063E040E00E9426018BB368
:100500009C2F907F8F70892B8BBB81E063E041E053
:100510000E9426018FE99FE00197F1F700C00000DB
:1005200081E063E040E00E9426018BB3C295C07F6A
:100530008F70C82BCBBB81E063E041E00E942601B5
:100540008FE99FE00197F1F700C0000081E063E0D0
:1005500040E00E9426018FE19EE40197F1F700C080
:100560000000CF9108950F931F93CF938C01FC014E
:100570008081882351F0C0E00E946E02CF5FF801B5
:10058000EC0FF11D80818823B9F7CF911F910F9156
:10059000089581E00E942902089581E061E041E030
:1005A0000E949D0081E062E041E00E949D0081E0A8
:1005B00063E041E00E949D0080E064E041E00E9431
:1005C0009D0080E065E041E00E949D0080E066E0E3
:1005D00041E00E949D0080E067E041E00E949D00B4
:1005E0008FEF91EEA4E081509040A040E1F700C071
:1005F000000083E30E94290282E30E94290288E22C
:100600000E9429020E94C90282E00E9429028CE015
:100610000E94290286E00E9429020895CF93DF9369
:1006200000D0CDB7DEB790E8998390EC9A83FE01B5
:10063000E80FF11D8181860F0E9429020F900F9013
:10064000DF91CF9108954F925F926F927F928F9238
:100650009F92AF92BF92CF92DF92EF92FF920F9351
:100660001F93CF93DF93CDB7DEB72B970FB6F894D8
:10067000DEBF0FBECDBF6B017C0161157105810529
:10068000910521F480E30E946E0267C099238CF0EB
:100690008B019C0102C097018601BB240F2EFAE05A
:1006A0004F2EF0E05F2EF0E06F2EF0E07F2EF02D69
:1006B00013C08DE20E946E02F094E094D094C09436
:1006C000C11CD11CE11CF11CC114D104E104F104D2
:1006D00011F76624772436C0B394C901B801A30189
:1006E00092010E94460489019A0101151105210514
:1006F000310591F76B2C7724C30101971AF183011F
:100700002E010894411C511C040D151D0F2EFAE0FA
:100710008F2EF0E09F2EF0E0AF2EF0E0BF2EF02DF8
:1007200001501040C701B601A50194010E94460482
:10073000605DF8016083C22ED32EE42EF52E0415E1
:10074000150571F7E1E0F0E0EC0FFD1FE60DF71D78
:100750001082CE0101960E94B3022B960FB6F89438
:10076000DEBF0FBECDBFDF91CF911F910F91FF90E4
:10077000EF90DF90CF90BF90AF909F908F907F9041
:100780006F905F904F90089582E061E041E00E9499
:100790009D00089582E061E041E00E9426010895F5
:1007A00082E061E040E00E942601089582E061E07D
:1007B0000E94EC01089583E065E041E00E949D0005
:1007C000089583E065E041E00E942601089583E0FA
:1007D00065E040E00E942601089583E065E00E9404
:1007E000EC0108950E9426040E94C4030E94DB03CA
:1007F0000E94CD0280E00E943D04C82F0E946E023C
:10080000C333A1F0C43328F4C13351F0C23391F79C
:100810000AC0C53389F0C53360F0C63359F711C03B
:100820000E94CA03E7CF0E94D003E4CF0E94E103F5
:10083000E1CF0E94E703DECF0E94CA030E94E103DA
:10084000D9CF0E94D0030E94E703D4CF81E064E0B7
:1008500040E00E949D0081E065E040E00E949D0034
:1008600081E066E041E00E949D0081E067E040E0B9
:100870000E949D0080E68DB908958FB9779BFECFC9
:100880008FB10895779BFECF8FB1089597FB092E06
:1008900005260ED057FD04D014D00AD0001C38F421
:1008A00050954095309521953F4F4F4F5F4F08959C
:1008B000F6F790958095709561957F4F8F4F9F4F7C
:1008C0000895A1E21A2EAA1BBB1BFD010DC0AA1F91
:1008D000BB1FEE1FFF1FA217B307E407F50720F0A9
:1008E000A21BB30BE40BF50B661F771F881F991F24
:1008F0001A9469F760957095809590959B01AC016D
:0A090000BD01CF010895F894FFCF68
:00000001FF
