S0180000534D41525420484F4D4520534C4156452E73726563A1
S11300000C942A000C9447000C9447000C9447006D
S11300100C9447000C9447000C9447000C94470040
S11300200C9447000C9447000C9447000C94FE0475
S11300300C9447000C9447000C9447000C94470020
S11300400C9447000C9447000C9447000C94470010
S11300500C94470011241FBECFE5D8E0DEBFCDBF0E
S113006010E0A0E6B0E0EAEAFBE002C005900D92E1
S1130070AE3AB107D9F710E0AEEAB0E001C01D9284
S1130080AA3BB107E1F70E942E040C94D3050C940B
S11300900000813049F0813028F0823039F083301B
S11300A041F406C06ABB089567BB089564BB089514
S11300B061BB0895813049F0813028F0823039F0F5
S11300C0833041F406C06BBB089568BB089565BBDB
S11300D0089562BB0895813059F0813028F0823050
S11300E059F0833081F40CC089B3FB0180830895F7
S11300F086B3FB018083089583B3FB018083089555
S113010080B3FB0180830895813059F0813028F059
S1130110823059F0833081F40CC08BB380958BBB53
S1130120089588B3809588BB089585B3809585BB71
S1130130089582B3809582BB0895813049F181305E
S113014038F0823009F444C0833009F07EC05FC0C7
S1130150413069F42AB381E090E0AC0102C0440F5D
S1130160551F6A95E2F7BA01622B6ABB08954423CE
S113017009F06BC02AB381E090E0AC0102C0440FE7
S1130180551F6A95E2F7BA01609562236ABB089528
S1130190413069F427B381E090E0AC0102C0440F20
S11301A0551F6A95E2F7BA01622B67BB0895442391
S11301B009F04BC027B381E090E0AC0102C0440FCA
S11301C0551F6A95E2F7BA016095622367BB0895EB
S11301D0413069F424B381E090E0AC0102C0440FE3
S11301E0551F6A95E2F7BA01622B64BB0895442354
S11301F061F524B381E090E0AC0102C0440F551FC7
S11302006A95E2F7BA016095622364BB08954130B0
S113021069F421B381E090E0AC0102C0440F551FA2
S11302206A95E2F7BA01622B61BB0895442369F42D
S113023021B381E090E0AC0102C0440F551F6A95E0
S1130240E2F7BA016095622361BB0895813049F1F8
S1130250813038F0823009F444C0833009F07EC024
S11302605FC0413069F42BB381E090E0AC0102C07F
S1130270440F551F6A95E2F7BA01622B6BBB0895D0
S1130280442309F06BC02BB381E090E0AC0102C0C1
S1130290440F551F6A95E2F7BA01609562236BBB60
S11302A00895413069F428B381E090E0AC0102C0C4
S11302B0440F551F6A95E2F7BA01622B68BB089593
S11302C0442309F04BC028B381E090E0AC0102C0A4
S11302D0440F551F6A95E2F7BA016095622368BB23
S11302E00895413069F425B381E090E0AC0102C087
S11302F0440F551F6A95E2F7BA01622B65BB089556
S1130300442361F525B381E090E0AC0102C0440FC1
S1130310551F6A95E2F7BA016095622365BB08959B
S1130320413069F422B381E090E0AC0102C0440F93
S1130330551F6A95E2F7BA01622B62BB0895442304
S113034069F422B381E090E0AC0102C0440F551F70
S11303506A95E2F7BA016095622362BB0895813021
S1130360A1F0813028F08230E9F08330A1F527C074
S113037089B390E09C0102C0359527956A95E2F710
S1130380B9016170FA016083089586B390E09C011D
S113039002C0359527956A95E2F7B9016170FA01B3
S11303A06083089583B390E09C0102C0359527953E
S11303B06A95E2F7B9016170FA016083089580B328
S11303C090E09C0102C0359527956A95E2F7B90142
S11303D06170FA01608308958130A1F0813028F0C2
S11303E08230E9F08330A1F527C02BB381E090E09F
S11303F0AC0102C0440F551F6A95E2F7BA016227A7
S11304006BBB089528B381E090E0AC0102C0440FB7
S1130410551F6A95E2F7BA01622768BB089525B3B0
S113042081E090E0AC0102C0440F551F6A95E2F7E9
S1130430BA01622765BB089522B381E090E0AC0164
S113044002C0440F551F6A95E2F7BA01622762BBE6
S11304500895CF93C82F81E061E040E00E94260117
S113046081E062E040E00E94260181E063E040E038
S11304700E9426018BB39C2F907F8F70892B8BBB9E
S113048081E063E041E00E9426018FE99FE001974B
S1130490F1F700C0000081E063E040E00E94260123
S11304A08BB3C295C07F8F70C82BCBBB81E063E058
S11304B041E00E9426018FE99FE00197F1F700C017
S11304C0000081E063E040E00E9426018FE19EE4A9
S11304D00197F1F700C00000CF910895CF93C82F82
S11304E081E061E041E00E94260181E062E040E0B9
S11304F00E94260181E063E040E00E9426018BB364
S11305009C2F907F8F70892B8BBB81E063E041E04F
S11305100E9426018FE99FE00197F1F700C00000D7
S113052081E063E040E00E9426018BB3C295C07F66
S11305308F70C82BCBBB81E063E041E00E942601B1
S11305408FE99FE00197F1F700C0000081E063E0CC
S113055040E00E9426018FE19EE40197F1F700C07C
S11305600000CF9108950F931F93CF938C01FC014A
S11305708081882351F0C0E00E946E02CF5FF801B1
S1130580EC0FF11D80818823B9F7CF911F910F9152
S1130590089581E00E942902089581E061E041E02C
S11305A00E949D0081E062E041E00E949D0081E0A4
S11305B063E041E00E949D0080E064E041E00E942D
S11305C09D0080E065E041E00E949D0080E066E0DF
S11305D041E00E949D0080E067E041E00E949D00B0
S11305E08FEF91EEA4E081509040A040E1F700C06D
S11305F0000083E30E94290282E30E94290288E228
S11306000E9429020E94C90282E00E9429028CE011
S11306100E94290286E00E9429020895CF93DF9365
S113062000D0CDB7DEB790E8998390EC9A83FE01B1
S1130630E80FF11D8181860F0E9429020F900F900F
S1130640DF91CF9108954F925F926F927F928F9234
S11306509F92AF92BF92CF92DF92EF92FF920F934D
S11306601F93CF93DF93CDB7DEB72B970FB6F894D4
S1130670DEBF0FBECDBF6B017C0161157105810525
S1130680910521F480E30E946E0267C099238CF0E7
S11306908B019C0102C097018601BB240F2EFAE056
S11306A04F2EF0E05F2EF0E06F2EF0E07F2EF02D65
S11306B013C08DE20E946E02F094E094D094C09432
S11306C0C11CD11CE11CF11CC114D104E104F104CE
S11306D011F76624772436C0B394C901B801A30185
S11306E092010E94820589019A01011511052105D3
S11306F0310591F76B2C7724C30101971AF183011B
S11307002E010894411C511C040D151D0F2EFAE0F6
S11307108F2EF0E09F2EF0E0AF2EF0E0BF2EF02DF4
S113072001501040C701B601A50194010E94820541
S1130730605DF8016083C22ED32EE42EF52E0415DD
S1130740150571F7E1E0F0E0EC0FFD1FE60DF71D74
S11307501082CE0101960E94B3022B960FB6F89434
S1130760DEBF0FBECDBFDF91CF911F910F91FF90E0
S1130770EF90DF90CF90BF90AF909F908F907F903D
S11307806F905F904F90089582E061E041E00E9495
S11307909D00089582E061E041E00E9426010895F1
S11307A082E061E040E00E942601089582E061E079
S11307B00E94EC01089583E065E041E00E949D0001
S11307C0089583E065E041E00E942601089583E0F6
S11307D065E040E00E942601089583E065E00E9400
S11307E0EC01089580E060E00E940E038091AE0069
S11307F090E09C01220F331F280F391F220F331F53
S1130800220F331F820F931F805A9F4F0E94B302FF
S113081081E060E00E940E038091AE0090E00196BA
S113082066E070E00E946F059C01220F331F280FC1
S1130830391F220F331F220F331F820F931F805A39
S11308409F4F0E94B3028091AE00853019F410923C
S1130850AE0008958F5F8093AE000895CF93DF9329
S11308600F92CDB7DEB70E9476040E94C4030E94A3
S1130870DB030E94CD020E949F0468EE73E080E0D7
S113088090E042EF53E00E94C9040E94B50419822B
S1130890CE0101960E9496048130D1F78981833379
S11308A0A1F0843328F4813351F08233E9F40AC08F
S11308B0853389F0853360F08633B1F411C00E942A
S11308C0CA0312C00E94D0030FC00E94E1030CC0EF
S11308D00E94E70309C00E94CA030E94E10304C006
S11308E00E94D0030E94E7031982D2CF81E064E022
S11308F040E00E949D0081E065E040E00E949D0090
S113090081E066E041E00E949D0081E067E040E014
S11309100E949D0080E68DB908958FB9779BFECF24
S11309208FB10895779BFECF8FB10895779B05C053
S11309302FB1FC01208381E0089580E0089583B7FE
S1130940877F83BF83B78F7B83BF83B78F7E83BF4C
S113095083B78F7D83BF8FB780688FBF89B781606E
S113096089BF89B78D7F89BF089583B7816083BFAD
S113097083B78D7F83BF83B7846083BF089583B7B4
S11309808E7F83BF83B78D7F83BF83B78B7F83BF06
S113099008955093B9004093B80028EE33E040E046
S11309A050E00E945005DC01CB01689416F8B6951E
S11309B0A795979587951694D1F7492F5A2F6B2FA2
S11309C077274093B0005093B1006093B2007093C6
S11309D0B300282F21952093AF0022BF882369F00C
S11309E0DB01CA010196A11DB11D8093B000909353
S11309F0B100A093B200B093B30008951F920F9278
S1130A000FB60F9211242F933F934F935F936F93DD
S1130A107F938F939F93AF93BF93EF93FF938091B3
S1130A20B4009091B500A091B600B091B7000196C2
S1130A30A11DB11D8093B4009093B500A093B6009E
S1130A40B093B7004091B0005091B1006091B200F2
S1130A507091B30084179507A607B70781F4E09156
S1130A60B800F091B90009951092B4001092B50045
S1130A701092B6001092B7008091AF0082BFFF9130
S1130A80EF91BF91AF919F918F917F916F915F9102
S1130A904F913F912F910F900FBE0F901F9018957B
S1130AA0629FD001739FF001829FE00DF11D649F4E
S1130AB0E00DF11D929FF00D839FF00D749FF00DDA
S1130AC0659FF00D9927729FB00DE11DF91F639F7B
S1130AD0B00DE11DF91FBD01CF011124089597FB4D
S1130AE0092E07260AD077FD04D027D006D000208F
S1130AF01AF4709561957F4F0895F6F79095819556
S1130B009F4F089597FB092E05260ED057FD04D05C
S1130B1028D00AD0001C38F4509540953095219582
S1130B203F4F4F4F5F4F0895F6F79095809570951E
S1130B3061957F4F8F4F9F4F0895AA1BBB1B51E1B7
S1130B4007C0AA1FBB1FA617B70710F0A61BB70B39
S1130B50881F991F5A95A9F780959095BC01CD01DE
S1130B600895A1E21A2EAA1BBB1BFD010DC0AA1FEA
S1130B70BB1FEE1FFF1FA217B307E407F50720F002
S1130B80A21BB30BE40BF50B661F771F881F991F7D
S1130B901A9469F760957095809590959B01AC01C6
S10D0BA0BD01CF010895F894FFCFC2
S1130BAA312D2D3E4C454431204F4E2000322D2DFF
S1130BBA3E4C454431204F464600332D2D3E4C458C
S1130BCA4432204F4E2000342D2D3E4C45443220D1
S1130BDA4F464600352D2D3E4C454473204F4E203A
S1110BEA00362D2D3E4C454473204F464600E8
S9030000FC
